{
  "_format": "hh-sol-artifact-1",
  "contractName": "SimpleEMR",
  "sourceName": "contracts/SimpleEMR.sol",
  "abi": [
    {
      "anonymous": false,
      "inputs": [
        {
          "indexed": true,
          "internalType": "address",
          "name": "patientAddress",
          "type": "address"
        },
        {
          "indexed": false,
          "internalType": "string",
          "name": "cid",
          "type": "string"
        }
      ],
      "name": "IpfsAdded",
      "type": "event"
    },
    {
      "anonymous": false,
      "inputs": [
        {
          "indexed": true,
          "internalType": "address",
          "name": "patientAddress",
          "type": "address"
        },
        {
          "indexed": false,
          "internalType": "string",
          "name": "email",
          "type": "string"
        }
      ],
      "name": "PatientAdded",
      "type": "event"
    },
    {
      "inputs": [
        {
          "internalType": "string",
          "name": "_cid",
          "type": "string"
        }
      ],
      "name": "addIpfs",
      "outputs": [],
      "stateMutability": "nonpayable",
      "type": "function"
    },
    {
      "inputs": [
        {
          "internalType": "string",
          "name": "_email",
          "type": "string"
        },
        {
          "internalType": "string",
          "name": "_role",
          "type": "string"
        },
        {
          "internalType": "address",
          "name": "_ipfsHash",
          "type": "address"
        }
      ],
      "name": "addPatientAccount",
      "outputs": [],
      "stateMutability": "nonpayable",
      "type": "function"
    },
    {
      "inputs": [],
      "name": "getIpfs",
      "outputs": [
        {
          "components": [
            {
              "internalType": "address",
              "name": "ipfsAddress",
              "type": "address"
            },
            {
              "internalType": "string",
              "name": "cid",
              "type": "string"
            }
          ],
          "internalType": "struct SimpleEMR.Ipfs[]",
          "name": "",
          "type": "tuple[]"
        }
      ],
      "stateMutability": "view",
      "type": "function"
    },
    {
      "inputs": [
        {
          "internalType": "address",
          "name": "_address",
          "type": "address"
        }
      ],
      "name": "getIpfsByAddress",
      "outputs": [
        {
          "components": [
            {
              "internalType": "address",
              "name": "ipfsAddress",
              "type": "address"
            },
            {
              "internalType": "string",
              "name": "cid",
              "type": "string"
            }
          ],
          "internalType": "struct SimpleEMR.Ipfs",
          "name": "",
          "type": "tuple"
        }
      ],
      "stateMutability": "view",
      "type": "function"
    },
    {
      "inputs": [],
      "name": "getNumberOfIpfs",
      "outputs": [
        {
          "internalType": "uint256",
          "name": "",
          "type": "uint256"
        },
        {
          "components": [
            {
              "internalType": "address",
              "name": "ipfsAddress",
              "type": "address"
            },
            {
              "internalType": "string",
              "name": "cid",
              "type": "string"
            }
          ],
          "internalType": "struct SimpleEMR.Ipfs[]",
          "name": "",
          "type": "tuple[]"
        }
      ],
      "stateMutability": "view",
      "type": "function"
    },
    {
      "inputs": [],
      "name": "getNumberOfPatients",
      "outputs": [
        {
          "internalType": "uint256",
          "name": "",
          "type": "uint256"
        },
        {
          "components": [
            {
              "internalType": "address",
              "name": "accountAddress",
              "type": "address"
            },
            {
              "internalType": "string",
              "name": "email",
              "type": "string"
            },
            {
              "internalType": "string",
              "name": "role",
              "type": "string"
            },
            {
              "internalType": "address",
              "name": "ipfsHash",
              "type": "address"
            }
          ],
          "internalType": "struct SimpleEMR.PatientAccount[]",
          "name": "",
          "type": "tuple[]"
        }
      ],
      "stateMutability": "view",
      "type": "function"
    },
    {
      "inputs": [],
      "name": "getPatientAccount",
      "outputs": [
        {
          "components": [
            {
              "internalType": "address",
              "name": "accountAddress",
              "type": "address"
            },
            {
              "internalType": "string",
              "name": "email",
              "type": "string"
            },
            {
              "internalType": "string",
              "name": "role",
              "type": "string"
            },
            {
              "internalType": "address",
              "name": "ipfsHash",
              "type": "address"
            }
          ],
          "internalType": "struct SimpleEMR.PatientAccount[]",
          "name": "",
          "type": "tuple[]"
        }
      ],
      "stateMutability": "view",
      "type": "function"
    },
    {
      "inputs": [
        {
          "internalType": "address",
          "name": "_address",
          "type": "address"
        }
      ],
      "name": "getPatientAccountByAddress",
      "outputs": [
        {
          "components": [
            {
              "internalType": "address",
              "name": "accountAddress",
              "type": "address"
            },
            {
              "internalType": "string",
              "name": "email",
              "type": "string"
            },
            {
              "internalType": "string",
              "name": "role",
              "type": "string"
            },
            {
              "internalType": "address",
              "name": "ipfsHash",
              "type": "address"
            }
          ],
          "internalType": "struct SimpleEMR.PatientAccount",
          "name": "",
          "type": "tuple"
        }
      ],
      "stateMutability": "view",
      "type": "function"
    },
    {
      "inputs": [
        {
          "internalType": "string",
          "name": "_email",
          "type": "string"
        }
      ],
      "name": "getPatientAccountByEmail",
      "outputs": [
        {
          "internalType": "address",
          "name": "",
          "type": "address"
        }
      ],
      "stateMutability": "view",
      "type": "function"
    },
    {
      "inputs": [
        {
          "internalType": "uint256",
          "name": "",
          "type": "uint256"
        }
      ],
      "name": "ipfss",
      "outputs": [
        {
          "internalType": "address",
          "name": "ipfsAddress",
          "type": "address"
        },
        {
          "internalType": "string",
          "name": "cid",
          "type": "string"
        }
      ],
      "stateMutability": "view",
      "type": "function"
    },
    {
      "inputs": [
        {
          "internalType": "uint256",
          "name": "",
          "type": "uint256"
        }
      ],
      "name": "patientAccounts",
      "outputs": [
        {
          "internalType": "address",
          "name": "accountAddress",
          "type": "address"
        },
        {
          "internalType": "string",
          "name": "email",
          "type": "string"
        },
        {
          "internalType": "string",
          "name": "role",
          "type": "string"
        },
        {
          "internalType": "address",
          "name": "ipfsHash",
          "type": "address"
        }
      ],
      "stateMutability": "view",
      "type": "function"
    }
  ],
  "bytecode": "0x608060405234801561001057600080fd5b50612083806100206000396000f3fe608060405234801561001057600080fd5b50600436106100a85760003560e01c806373c6471e1161007157806373c6471e1461018a57806377c36a70146101a957806378ceaa7e146101c85780639f2ebbe8146101e4578063c1e7673f14610202578063f8dd5af514610235576100a8565b80621aa12b146100ad57806310578c8f146100de5780634a0e38621461010e5780634d8b2f0e1461013e5780635f6a1cd11461016e575b600080fd5b6100c760048036038101906100c291906114da565b610253565b6040516100d59291906115d8565b60405180910390f35b6100f860048036038101906100f39190611634565b61032f565b6040516101059190611724565b60405180910390f35b61012860048036038101906101239190611634565b610558565b6040516101359190611783565b60405180910390f35b610158600480360381019061015391906118da565b610699565b6040516101659190611923565b60405180910390f35b6101886004803603810190610183919061193e565b6106e1565b005b6101926109c8565b6040516101a0929190611ad7565b60405180910390f35b6101b1610b1d565b6040516101bf929190611c33565b60405180910390f35b6101e260048036038101906101dd91906118da565b610d5a565b005b6101ec610f06565b6040516101f99190611c63565b60405180910390f35b61021c600480360381019061021791906114da565b611135565b60405161022c9493929190611c85565b60405180910390f35b61023d6112c5565b60405161024a9190611cd8565b60405180910390f35b6001818154811061026357600080fd5b90600052602060002090600202016000915090508060000160009054906101000a900473ffffffffffffffffffffffffffffffffffffffff16908060010180546102ac90611d29565b80601f01602080910402602001604051908101604052809291908181526020018280546102d890611d29565b80156103255780601f106102fa57610100808354040283529160200191610325565b820191906000526020600020905b81548152906001019060200180831161030857829003601f168201915b5050505050905082565b61033761140c565b600260008373ffffffffffffffffffffffffffffffffffffffff1673ffffffffffffffffffffffffffffffffffffffff1681526020019081526020016000206040518060800160405290816000820160009054906101000a900473ffffffffffffffffffffffffffffffffffffffff1673ffffffffffffffffffffffffffffffffffffffff1673ffffffffffffffffffffffffffffffffffffffff1681526020016001820180546103e790611d29565b80601f016020809104026020016040519081016040528092919081815260200182805461041390611d29565b80156104605780601f1061043557610100808354040283529160200191610460565b820191906000526020600020905b81548152906001019060200180831161044357829003601f168201915b5050505050815260200160028201805461047990611d29565b80601f01602080910402602001604051908101604052809291908181526020018280546104a590611d29565b80156104f25780601f106104c7576101008083540402835291602001916104f2565b820191906000526020600020905b8154815290600101906020018083116104d557829003601f168201915b505050505081526020016003820160009054906101000a900473ffffffffffffffffffffffffffffffffffffffff1673ffffffffffffffffffffffffffffffffffffffff1673ffffffffffffffffffffffffffffffffffffffff16815250509050919050565b610560611460565b600460008373ffffffffffffffffffffffffffffffffffffffff1673ffffffffffffffffffffffffffffffffffffffff1681526020019081526020016000206040518060400160405290816000820160009054906101000a900473ffffffffffffffffffffffffffffffffffffffff1673ffffffffffffffffffffffffffffffffffffffff1673ffffffffffffffffffffffffffffffffffffffff16815260200160018201805461061090611d29565b80601f016020809104026020016040519081016040528092919081815260200182805461063c90611d29565b80156106895780601f1061065e57610100808354040283529160200191610689565b820191906000526020600020905b81548152906001019060200180831161066c57829003601f168201915b5050505050815250509050919050565b60006003826040516106ab9190611d96565b908152602001604051809103902060009054906101000a900473ffffffffffffffffffffffffffffffffffffffff169050919050565b600060405180608001604052803373ffffffffffffffffffffffffffffffffffffffff1681526020018581526020018481526020018373ffffffffffffffffffffffffffffffffffffffff168152509050600081908060018154018082558091505060019003906000526020600020906004020160009091909190915060008201518160000160006101000a81548173ffffffffffffffffffffffffffffffffffffffff021916908373ffffffffffffffffffffffffffffffffffffffff16021790555060208201518160010190816107ba9190611f59565b5060408201518160020190816107d09190611f59565b5060608201518160030160006101000a81548173ffffffffffffffffffffffffffffffffffffffff021916908373ffffffffffffffffffffffffffffffffffffffff160217905550505080600260003373ffffffffffffffffffffffffffffffffffffffff1673ffffffffffffffffffffffffffffffffffffffff16815260200190815260200160002060008201518160000160006101000a81548173ffffffffffffffffffffffffffffffffffffffff021916908373ffffffffffffffffffffffffffffffffffffffff16021790555060208201518160010190816108b69190611f59565b5060408201518160020190816108cc9190611f59565b5060608201518160030160006101000a81548173ffffffffffffffffffffffffffffffffffffffff021916908373ffffffffffffffffffffffffffffffffffffffff160217905550905050336003856040516109289190611d96565b908152602001604051809103902060006101000a81548173ffffffffffffffffffffffffffffffffffffffff021916908373ffffffffffffffffffffffffffffffffffffffff1602179055503373ffffffffffffffffffffffffffffffffffffffff167ff537abbc11693c65132fb438317bbefdab9fecb035a7828567ae49f76d6976c5856040516109ba919061202b565b60405180910390a250505050565b60006060600180549050600180805480602002602001604051908101604052809291908181526020016000905b82821015610b0f57838290600052602060002090600202016040518060400160405290816000820160009054906101000a900473ffffffffffffffffffffffffffffffffffffffff1673ffffffffffffffffffffffffffffffffffffffff1673ffffffffffffffffffffffffffffffffffffffff168152602001600182018054610a7e90611d29565b80601f0160208091040260200160405190810160405280929190818152602001828054610aaa90611d29565b8015610af75780601f10610acc57610100808354040283529160200191610af7565b820191906000526020600020905b815481529060010190602001808311610ada57829003601f168201915b505050505081525050815260200190600101906109f5565b505050509050915091509091565b60006060600080549050600080805480602002602001604051908101604052809291908181526020016000905b82821015610d4c57838290600052602060002090600402016040518060800160405290816000820160009054906101000a900473ffffffffffffffffffffffffffffffffffffffff1673ffffffffffffffffffffffffffffffffffffffff1673ffffffffffffffffffffffffffffffffffffffff168152602001600182018054610bd390611d29565b80601f0160208091040260200160405190810160405280929190818152602001828054610bff90611d29565b8015610c4c5780601f10610c2157610100808354040283529160200191610c4c565b820191906000526020600020905b815481529060010190602001808311610c2f57829003601f168201915b50505050508152602001600282018054610c6590611d29565b80601f0160208091040260200160405190810160405280929190818152602001828054610c9190611d29565b8015610cde5780601f10610cb357610100808354040283529160200191610cde565b820191906000526020600020905b815481529060010190602001808311610cc157829003601f168201915b505050505081526020016003820160009054906101000a900473ffffffffffffffffffffffffffffffffffffffff1673ffffffffffffffffffffffffffffffffffffffff1673ffffffffffffffffffffffffffffffffffffffff168152505081526020019060010190610b4a565b505050509050915091509091565b600060405180604001604052803373ffffffffffffffffffffffffffffffffffffffff168152602001838152509050600181908060018154018082558091505060019003906000526020600020906002020160009091909190915060008201518160000160006101000a81548173ffffffffffffffffffffffffffffffffffffffff021916908373ffffffffffffffffffffffffffffffffffffffff1602179055506020820151816001019081610e119190611f59565b50505080600460003373ffffffffffffffffffffffffffffffffffffffff1673ffffffffffffffffffffffffffffffffffffffff16815260200190815260200160002060008201518160000160006101000a81548173ffffffffffffffffffffffffffffffffffffffff021916908373ffffffffffffffffffffffffffffffffffffffff1602179055506020820151816001019081610eb09190611f59565b509050503373ffffffffffffffffffffffffffffffffffffffff167fecb2d7d94576b748ade482c09afe8f95e4f4522eba433fcb8a5277366af560b483604051610efa919061202b565b60405180910390a25050565b60606000805480602002602001604051908101604052809291908181526020016000905b8282101561112c57838290600052602060002090600402016040518060800160405290816000820160009054906101000a900473ffffffffffffffffffffffffffffffffffffffff1673ffffffffffffffffffffffffffffffffffffffff1673ffffffffffffffffffffffffffffffffffffffff168152602001600182018054610fb390611d29565b80601f0160208091040260200160405190810160405280929190818152602001828054610fdf90611d29565b801561102c5780601f106110015761010080835404028352916020019161102c565b820191906000526020600020905b81548152906001019060200180831161100f57829003601f168201915b5050505050815260200160028201805461104590611d29565b80601f016020809104026020016040519081016040528092919081815260200182805461107190611d29565b80156110be5780601f10611093576101008083540402835291602001916110be565b820191906000526020600020905b8154815290600101906020018083116110a157829003601f168201915b505050505081526020016003820160009054906101000a900473ffffffffffffffffffffffffffffffffffffffff1673ffffffffffffffffffffffffffffffffffffffff1673ffffffffffffffffffffffffffffffffffffffff168152505081526020019060010190610f2a565b50505050905090565b6000818154811061114557600080fd5b90600052602060002090600402016000915090508060000160009054906101000a900473ffffffffffffffffffffffffffffffffffffffff169080600101805461118e90611d29565b80601f01602080910402602001604051908101604052809291908181526020018280546111ba90611d29565b80156112075780601f106111dc57610100808354040283529160200191611207565b820191906000526020600020905b8154815290600101906020018083116111ea57829003601f168201915b50505050509080600201805461121c90611d29565b80601f016020809104026020016040519081016040528092919081815260200182805461124890611d29565b80156112955780601f1061126a57610100808354040283529160200191611295565b820191906000526020600020905b81548152906001019060200180831161127857829003601f168201915b5050505050908060030160009054906101000a900473ffffffffffffffffffffffffffffffffffffffff16905084565b60606001805480602002602001604051908101604052809291908181526020016000905b8282101561140357838290600052602060002090600202016040518060400160405290816000820160009054906101000a900473ffffffffffffffffffffffffffffffffffffffff1673ffffffffffffffffffffffffffffffffffffffff1673ffffffffffffffffffffffffffffffffffffffff16815260200160018201805461137290611d29565b80601f016020809104026020016040519081016040528092919081815260200182805461139e90611d29565b80156113eb5780601f106113c0576101008083540402835291602001916113eb565b820191906000526020600020905b8154815290600101906020018083116113ce57829003601f168201915b505050505081525050815260200190600101906112e9565b50505050905090565b6040518060800160405280600073ffffffffffffffffffffffffffffffffffffffff1681526020016060815260200160608152602001600073ffffffffffffffffffffffffffffffffffffffff1681525090565b6040518060400160405280600073ffffffffffffffffffffffffffffffffffffffff168152602001606081525090565b6000604051905090565b600080fd5b600080fd5b6000819050919050565b6114b7816114a4565b81146114c257600080fd5b50565b6000813590506114d4816114ae565b92915050565b6000602082840312156114f0576114ef61149a565b5b60006114fe848285016114c5565b91505092915050565b600073ffffffffffffffffffffffffffffffffffffffff82169050919050565b600061153282611507565b9050919050565b61154281611527565b82525050565b600081519050919050565b600082825260208201905092915050565b60005b83811015611582578082015181840152602081019050611567565b60008484015250505050565b6000601f19601f8301169050919050565b60006115aa82611548565b6115b48185611553565b93506115c4818560208601611564565b6115cd8161158e565b840191505092915050565b60006040820190506115ed6000830185611539565b81810360208301526115ff818461159f565b90509392505050565b61161181611527565b811461161c57600080fd5b50565b60008135905061162e81611608565b92915050565b60006020828403121561164a5761164961149a565b5b60006116588482850161161f565b91505092915050565b61166a81611527565b82525050565b600082825260208201905092915050565b600061168c82611548565b6116968185611670565b93506116a6818560208601611564565b6116af8161158e565b840191505092915050565b60006080830160008301516116d26000860182611661565b50602083015184820360208601526116ea8282611681565b915050604083015184820360408601526117048282611681565b91505060608301516117196060860182611661565b508091505092915050565b6000602082019050818103600083015261173e81846116ba565b905092915050565b600060408301600083015161175e6000860182611661565b50602083015184820360208601526117768282611681565b9150508091505092915050565b6000602082019050818103600083015261179d8184611746565b905092915050565b600080fd5b600080fd5b7f4e487b7100000000000000000000000000000000000000000000000000000000600052604160045260246000fd5b6117e78261158e565b810181811067ffffffffffffffff82111715611806576118056117af565b5b80604052505050565b6000611819611490565b905061182582826117de565b919050565b600067ffffffffffffffff821115611845576118446117af565b5b61184e8261158e565b9050602081019050919050565b82818337600083830152505050565b600061187d6118788461182a565b61180f565b905082815260208101848484011115611899576118986117aa565b5b6118a484828561185b565b509392505050565b600082601f8301126118c1576118c06117a5565b5b81356118d184826020860161186a565b91505092915050565b6000602082840312156118f0576118ef61149a565b5b600082013567ffffffffffffffff81111561190e5761190d61149f565b5b61191a848285016118ac565b91505092915050565b60006020820190506119386000830184611539565b92915050565b6000806000606084860312156119575761195661149a565b5b600084013567ffffffffffffffff8111156119755761197461149f565b5b611981868287016118ac565b935050602084013567ffffffffffffffff8111156119a2576119a161149f565b5b6119ae868287016118ac565b92505060406119bf8682870161161f565b9150509250925092565b6119d2816114a4565b82525050565b600081519050919050565b600082825260208201905092915050565b6000819050602082019050919050565b6000604083016000830151611a1c6000860182611661565b5060208301518482036020860152611a348282611681565b9150508091505092915050565b6000611a4d8383611a04565b905092915050565b6000602082019050919050565b6000611a6d826119d8565b611a7781856119e3565b935083602082028501611a89856119f4565b8060005b85811015611ac55784840389528151611aa68582611a41565b9450611ab183611a55565b925060208a01995050600181019050611a8d565b50829750879550505050505092915050565b6000604082019050611aec60008301856119c9565b8181036020830152611afe8184611a62565b90509392505050565b600081519050919050565b600082825260208201905092915050565b6000819050602082019050919050565b6000608083016000830151611b4b6000860182611661565b5060208301518482036020860152611b638282611681565b91505060408301518482036040860152611b7d8282611681565b9150506060830151611b926060860182611661565b508091505092915050565b6000611ba98383611b33565b905092915050565b6000602082019050919050565b6000611bc982611b07565b611bd38185611b12565b935083602082028501611be585611b23565b8060005b85811015611c215784840389528151611c028582611b9d565b9450611c0d83611bb1565b925060208a01995050600181019050611be9565b50829750879550505050505092915050565b6000604082019050611c4860008301856119c9565b8181036020830152611c5a8184611bbe565b90509392505050565b60006020820190508181036000830152611c7d8184611bbe565b905092915050565b6000608082019050611c9a6000830187611539565b8181036020830152611cac818661159f565b90508181036040830152611cc0818561159f565b9050611ccf6060830184611539565b95945050505050565b60006020820190508181036000830152611cf28184611a62565b905092915050565b7f4e487b7100000000000000000000000000000000000000000000000000000000600052602260045260246000fd5b60006002820490506001821680611d4157607f821691505b602082108103611d5457611d53611cfa565b5b50919050565b600081905092915050565b6000611d7082611548565b611d7a8185611d5a565b9350611d8a818560208601611564565b80840191505092915050565b6000611da28284611d65565b915081905092915050565b60008190508160005260206000209050919050565b60006020601f8301049050919050565b600082821b905092915050565b600060088302611e0f7fffffffffffffffffffffffffffffffffffffffffffffffffffffffffffffffff82611dd2565b611e198683611dd2565b95508019841693508086168417925050509392505050565b6000819050919050565b6000611e56611e51611e4c846114a4565b611e31565b6114a4565b9050919050565b6000819050919050565b611e7083611e3b565b611e84611e7c82611e5d565b848454611ddf565b825550505050565b600090565b611e99611e8c565b611ea4818484611e67565b505050565b5b81811015611ec857611ebd600082611e91565b600181019050611eaa565b5050565b601f821115611f0d57611ede81611dad565b611ee784611dc2565b81016020851015611ef6578190505b611f0a611f0285611dc2565b830182611ea9565b50505b505050565b600082821c905092915050565b6000611f3060001984600802611f12565b1980831691505092915050565b6000611f498383611f1f565b9150826002028217905092915050565b611f6282611548565b67ffffffffffffffff811115611f7b57611f7a6117af565b5b611f858254611d29565b611f90828285611ecc565b600060209050601f831160018114611fc35760008415611fb1578287015190505b611fbb8582611f3d565b865550612023565b601f198416611fd186611dad565b60005b82811015611ff957848901518255600182019150602085019450602081019050611fd4565b868310156120165784890151612012601f891682611f1f565b8355505b6001600288020188555050505b505050505050565b60006020820190508181036000830152612045818461159f565b90509291505056fea2646970667358221220e1a860698f5c24f786e5284d71aadab609feca58d128e27864bc94b34813afc464736f6c63430008160033",
  "linkReferences": {},
  "deployedLinkReferences": {}
}